:100000000C9481000C94A9000C94A9000C94A900F4
:100010000C94A9000C94A9000C94A9000C94A900BC
:100020000C94A9000C94A9000C94A9000C94A900AC
:100030000C94A9000C94A9000C94A9000C94A9009C
:100040000C947E0A0C94A9000C94EE0A0C94C80A35
:100050000C94A9000C94A9000C94A9000C94A9007C
:100060000C94A9000C94A900536574757020636FFB
:100070006D706C65746564005374617274696E6749
:100080002073657475700020436F727265637469C4
:100090006F6E3A2000204572726F723A2000426102
:1000A00073653A200000000000240027002A0000A9
:1000B000000000250028002B00000000002300267F
:1000C00000290004040404040404040202020202DD
:1000D000020303030303030102040810204080010C
:1000E000020408102001020408102000000008008B
:1000F00002010000030407000000000000000000EF
:10010000200B11241FBECFEFD8E0DEBFCDBF11E022
:10011000A0E0B1E0ECE8FAE202C005900D92A03C4C
:10012000B107D9F725E0A0ECB1E001C01D92A03DD8
:10013000B207E1F710E0C1E8D0E004C02197FE016A
:100140000E940013C038D107C9F70E948B0B0C9492
:1001500044150C940000833081F028F4813099F02C
:100160008230A9F008958730A9F08830C9F0843032
:10017000B1F4809180008F7D03C0809180008F77E3
:1001800080938000089584B58F7784BD089584B5E9
:100190008F7DFBCF8091B0008F778093B000089562
:1001A0008091B0008F7DF9CFCF93DF93282F30E07F
:1001B000F901E551FF4F8491F901E952FF4FD491C4
:1001C000F901ED53FF4FC491CC23A1F081110E949E
:1001D000AB00EC2FF0E0EE0FFF1FE754FF4FA591AF
:1001E000B491EC91ED2381E090E009F480E0DF919F
:1001F000CF91089580E090E0FACF1F93CF93DF93E3
:10020000282F30E0F901E551FF4F8491F901E952BF
:10021000FF4FD491F901ED53FF4FC491CC23A9F0C6
:10022000162F81110E94AB00EC2FF0E0EE0FFF1FA4
:10023000E155FF4FA591B4918FB7F894EC9111114E
:1002400008C0D095DE23DC938FBFDF91CF911F9143
:100250000895DE2BF8CFCF93DF9390E0FC01E952B5
:10026000FF4F24918D539F4FFC0184918823D1F03F
:1002700090E0880F991FFC01EB55FF4FA591B491B9
:10028000FC01E155FF4FC591D49161110EC09FB79C
:10029000F8948C91E22FE0958E238C932881E223B1
:1002A000E8839FBFDF91CF9108958FB7F894EC91C9
:1002B000E22BEC938FBFF6CF1F93CF93DF93182FD2
:1002C000EB0161E00E942B01209739F460E0812F5F
:1002D000DF91CF911F910C94FD00CF3FD10511F418
:1002E00061E0F5CFE12FF0E0E551FF4FE491E3301D
:1002F00031F140F4E130B1F0E230E1F0C038D10545
:100300007CF7E4CFE73029F1E83059F1E430B1F778
:1003100080918000806280938000D0938B00C09396
:100320008A0004C084B5806884BDC7BDDF91CF91C9
:100330001F91089584B5806284BDC8BDF7CF8091B8
:100340008000806880938000D0938900C0938800EB
:10035000EDCF8091B00080688093B000C093B3006F
:10036000E5CF8091B00080628093B000C093B4006C
:10037000DDCF8E50806480937C0080917A00806411
:1003800080937A0080917A0086FDFCCF809178007E
:100390009091790008952FB7F89460912E02709192
:1003A0002F0280913002909131022FBF0895AF92B9
:1003B000BF92CF92DF92EF92FF920F931F93CF9352
:1003C000DF936C017B018B01040F151FEB015E01B4
:1003D000AE18BF08C017D10759F06991D601ED9149
:1003E000FC910190F081E02DC6010995892B79F7E8
:1003F000C501DF91CF911F910F91FF90EF90DF909A
:10040000CF90BF90AF900895FC01538D448D252F60
:1004100030E0842F90E0821B930B541710F0CF969E
:10042000089501970895FC01918D828D981761F0D0
:10043000A28DAE0FBF2FB11D5D968C91928D9F5FE7
:100440009F73928F90E008958FEF9FEF0895FC01C6
:10045000918D828D981731F0828DE80FF11D858D79
:1004600090E008958FEF9FEF0895FC01918D228D0C
:10047000892F90E0805C9F4F821B91098F73992791
:10048000089586E392E00E94350221E0892B09F469
:1004900020E0822F089580E090E0892B29F00E94CF
:1004A000410281110C9400000895FC01A48DA80F55
:1004B000B92FB11DA35ABF4F2C91848D90E00196A6
:1004C0008F739927848FA689B7892C93A089B189C6
:1004D0008C91837080648C93938D848D981306C067
:1004E0000288F389E02D80818F7D80830895EF92CB
:1004F000FF920F931F93CF93DF93EC0181E0888FDE
:100500009B8D8C8D98131AC0E889F989808185FFAD
:1005100015C09FB7F894EE89FF896083E889F9894F
:1005200080818370806480839FBF81E090E0DF9151
:10053000CF911F910F91FF90EF900895F62E0B8DA4
:1005400010E00F5F1F4F0F731127E02E8C8D8E115F
:100550000CC00FB607FCFACFE889F989808185FFC6
:10056000F5CFCE010E945502F1CFEB8DEC0FFD2FA0
:10057000F11DE35AFF4FF0829FB7F8940B8FEA8981
:10058000FB8980818062CFCF682F86E392E00C9454
:100590007702CF93DF93EC01888D8823B9F0AA8985
:1005A000BB89E889F9898C9185FD03C0808186FD2E
:1005B0000DC00FB607FCF7CF8C9185FFF2CF80817D
:1005C00085FFEDCFCE010E945502E9CFDF91CF919B
:1005D00008952F923F924F925F926F927F928F92E7
:1005E0009F92AF92BF92CF92DF92EF92FF920F93C2
:1005F0001F93CF93DF93CDB7DEB72E970FB6F89446
:10060000DEBF0FBECDBF84E10E94B9019A8389830A
:1006100083E10E94B9019C838B8382E10E94B9012E
:100620009E838D8381E10E94B90198878F8380E149
:100630000E94B9019A8789878FE00E94B9019C873F
:100640008B87CE0101967C0140E0A42E41E0B42EC0
:1006500054ED852E51E0952E3E019DE0690E711CF2
:100660008701D12CC12CED86FE869801D5012D90F5
:100670003D905D01F801808191818215930514F40C
:1006800031822082D401ED91FD914D01D8018D91EF
:100690009C911197E817F90714F4ED93FC93032C40
:1006A000000C440855080E5F1F4FD9012D913C9155
:1006B000032E000C440B550B22193309440955092C
:1006C000ACE9BFEF0E94BA129F01FF0F440B550B1C
:1006D00022193309440955090E948D12DA01C90112
:1006E0008C599F4FAF4FBF4FF80132979183808352
:1006F000C80ED91E0615170509F0B7CF21E0B9E7D6
:10070000CB16D1040CF420E0F89490E080E0F701DF
:10071000419151917F01FC01EE0FFF1FEA53FE4F03
:100720005183408301968630910589F72093C50156
:100730007894F894ED85FE8590E080E0DC01AA0FC6
:10074000BB1FAA53BE4F2D913C912193319301962B
:100750008630910599F78091C5017894882309F432
:10076000EAC069817A818B809C80AD80BE80CF8019
:10077000D884E984FA840B851C851B01280C391C5C
:100780002A0C3B1C2C0C3D1C2E0C3F1C200E311E39
:10079000F9E72F1631040CF4CEC0072E000C880B9D
:1007A000990B0E94221420E030E040E250EC0E94BD
:1007B000D7142B013C01B401990C880B990B0E94B2
:1007C00022142AE939E949E95FEB0E94D7149B0119
:1007D000AC01C301B2010E9407132B013C01B5011A
:1007E000BB0C880B990B0E9422142AE939E949E1D4
:1007F0005FEB0E94D7149B01AC01C301B2010E94C0
:1008000007134B015C01B601DD0C880B990B0E94AC
:1008100022142AE939E949E15FE30E94D7149B01D8
:10082000AC01C501B4010E9407134B015C01B70183
:10083000FF0C880B990B0E9422142AE939E949E937
:100840005FE30E94D7149B01AC01C501B4010E9473
:1008500007136B017C01B801110F880B990B0E94E3
:10086000221420E030E040E250E40E94D7149B01C3
:10087000AC01C701B6010E94071320E030E048EC4C
:1008800052E40E94D7146B017C01B101330C880B38
:10089000990B0E9422149B01AC01C701B6010E9472
:1008A00078136B017C0120E030E048EC52EC0E94B0
:1008B000731387FD11C020E030E048EC52E4C7011B
:1008C000B6010E94D21418166CF4C12CD12C88ECFD
:1008D000E82E82E4F82E06C0C12CD12C98ECE92E2B
:1008E00092ECF92EC701B6010E94EA137093C4017D
:1008F0006093C3018091C3019091C4019093C201A0
:100900008093C1012E960FB6F894DEBF0FBECDBF07
:10091000DF91CF911F910F91FF90EF90DF90CF90DB
:10092000BF90AF909F908F907F906F905F904F900F
:100930003F902F9008958091C1019091C20197FD41
:1009400007C084E690E09093C4018093C301D2CFA6
:100950008CE99FEFF8CFCF93DF9381302FEF920791
:10096000BCF0EC018F3F910519F014F0CFEFD0E00F
:1009700097FD10C061E088E00E94FD0060E089E022
:100980000E94FD00BE018AE0DF91CF910C945C01D2
:10099000C1E0DFEF60E088E00E94FD0061E089E0F7
:1009A0000E94FD00D195C195D109ECCFCF93DF9383
:1009B00081302FEF9207BCF0EC018F3F910519F0C9
:1009C00014F0CFEFD0E097FD10C061E087E00E9407
:1009D000FD0060E084E00E94FD00BE0183E0DF9145
:1009E000CF910C945C01C1E0DFEF60E087E00E94F2
:1009F000FD0061E084E00E94FD00D195C195D10920
:100A0000ECCF8091F30181113AC08091FE018111F8
:100A10000FC080E090E1A0E0B0E080930C019093E3
:100A20000D01A0930E01B0930F0181E08093FE01B0
:100A30001092B4051092B3051092B2051092F10312
:100A40001092F0031092EF0310926E0310926D0358
:100A500010926C0310921702109218021092190251
:100A600010921A02109213021092140210921502A0
:100A7000109216021092120281E08093F30181E03D
:100A80000895CF93C82FE82FF0E084E0F595E7951F
:100A90008A95E1F7E45EFE4F8081082E000C990BE9
:100AA0000E94C402CF70EC2FF0E0E45EFE4F808124
:100AB000082E000C990BCF910C94C4020F931F9336
:100AC000CF93DF93CFB7F894DC0190E080E0D1E0E2
:100AD00086179707B8F4EC910E2F10E0FC013196C1
:100AE000E617F70720F41196EC9111971E2BFC01E5
:100AF000E20FF31F0801D0935700E89511240296E6
:100B00001296E6CF85E0F90180935700E89507B685
:100B100000FCFDCFCFBF81E0DF91CF911F910F91FE
:100B200008952FB7F89433E0FB0130935700E89510
:100B300007B600FCFDCF2FBF81E008958F929F92F2
:100B4000AF92BF92CF92DF92EF92FF92DC01809141
:100B5000FE01882359F1211590E13907410551051E
:100B600030F4211598E039074105510571F5809061
:100B70000C0190900D01A0900E01B0900F01690141
:100B80007A01C60ED71EE11CF11C8C149D04AE0424
:100B9000BF04A8F06A0F7B1F2A1B3B0BF901EA0F69
:100BA000FB1FE491ED936A177B07C1F7FF90EF906D
:100BB000DF90CF90BF90AF909F908F9008952115B8
:100BC00098E039074105510529F380E0EFCF4F92B6
:100BD0005F926F927F929F92AF92BF92CF92DF927D
:100BE000EF92FF920F931F93CF93DF93EC018B0152
:100BF0009090FE01911012C0912C892DDF91CF9120
:100C00001F910F91FF90EF90DF90CF90BF90AF902A
:100C10009F907F906F905F904F9008956B012FEFA2
:100C2000C20ED11C40900C0150900D0160900E013D
:100C300070900F01C6018827A3019201280F391F68
:100C4000411D511DDA01C90181159048A105B10569
:100C500098F6CD2CDD24B12CA12CCA14DB0451F163
:100C600078010F3F110521F018F0E12CFF24F394D7
:100C7000C301B2010E949105882309F4BDCFA301ED
:100C80009201B701CE010E945E05882309F4B4CF1A
:100C900097012C0F3D1FDE01C2018C1B9D0B2A17F3
:100CA0003B0789F0FC01EA0FFB1FE4914D91E4172B
:100CB000B1F3A2CF40920C0150920D0160920E014F
:100CC00070920F019ACF4FEF541A640A740ACE0D36
:100CD000DF1D0E191F095FEFA51AB50ABECFCF930E
:100CE000DF93EC01FE0184912196882331F0082ED8
:100CF000000C990B0E94C402F5CFDF91CF910895AB
:100D0000CF92DF92EF92FF921F93CF93DF93FC017C
:100D1000108511110AC010E0812FDF91CF911F9132
:100D2000FF90EF90DF90CF900895EC010E94CB01EF
:100D3000C880D980EA80FB806C197D098E099F09E3
:100D4000CC80DD80EE80FF806C157D058E059F05D3
:100D500010F31886E1CFCF92DF92EF92FF92CF93FC
:100D6000DF93EC016A017B010E94CB0168837983E8
:100D70008A839B83CC82DD82EE82FF8281E088873A
:100D8000DF91CF91FF90EF90DF90CF9008957F9209
:100D90008F929F92AF92BF92CF92DF92EF92FF928B
:100DA0000F931F93CF93DF93CDB7DEB7A3970FB603
:100DB000F894DEBF0FBECDBF1092D3011092D201C6
:100DC0008091FE01882369F0198220E038E040E03C
:100DD00050E061E070E0CE0101960E949E05811115
:100DE00044C043E0E42EF12CCC24C394D12C62E027
:100DF000A62EB12C74E0872E912C8091D201909177
:100E0000D301049709F481C18BE00E94D4008C01C6
:100E100077247394892B09F4712C8091C001781682
:100E200081F042E350E060E070E083ED92E00E94E8
:100E3000AB060115110509F4AAC0D092D301C092E6
:100E4000D20183ED92E00E948006882359F08091C0
:100E5000D2019091D3018130910509F49DC003978F
:100E600009F4A6C07092C001C8CF89818A3A09F0FE
:100E7000B8CF8BE00E94D4007C0111E0892B09F4EB
:100E800010E08091C001811781F042E350E060E002
:100E900070E083ED92E00E94AB06EF2831F081E034
:100EA00090E09093D3018093D20183ED92E00E9471
:100EB0008006882309F43DC18091D2019091D3012D
:100EC000019709F036C181E08093F9011092F40195
:100ED0000E94CB016093F5017093F6018093F701B6
:100EE0009093F80148EE53E060E070E085EB95E008
:100EF0000E94AB0684E290E00E94C40261E086E3B7
:100F000092E00E94770220E030E140E050E063E2AE
:100F100070E0CE0101960E949E0543E250E0BE01C2
:100F20006F5F7F4F86E392E00E94D70162E086E325
:100F300092E00E94770233E2C32E30E1D32EE12CFF
:100F4000F12C80910C0190910D01A0910E01B091B6
:100F50000F01C816D906EA06FB0688F5A701960117
:100F60006EE070E0CE0101960E949E05882349F054
:100F70004EE050E0BE016F5F7F4F86E392E00E943B
:100F8000D7018EE0C80ED11CE11CF11CDACFF09223
:100F9000D301E092D20155CF012B29F0B092D301B9
:100FA000A092D2015FCF1092D3011092D2015ACFFA
:100FB000012BA1F79092D3018092D20153CF63E02D
:100FC00086E392E00E94770223E2C22E20E1D22E35
:100FD000E12CF12C80910C0190910D01A0910E015A
:100FE000B0910F01C816D906EA06FB06C8F4A7019E
:100FF000960168E070E0CE0101960E949E0588236C
:1010000049F048E050E0BE016F5F7F4F86E392E019
:101010000E94D70188E0C80ED11CE11CF11CDACF78
:1010200064E086E392E00E94770293E2C92E90E1A9
:10103000D92EE12CF12C80900C0190900D01A09004
:101040000E01B0900F01C814D904EA04FB04C8F4DF
:10105000A701960162E170E0CE0101960E949E0513
:10106000882349F042E150E0BE016F5F7F4F86E385
:1010700092E00E94D70182E1C80ED11CE11CF11C54
:10108000DACF83E290E00E94C402C12C80E1D82E26
:10109000E12CF12C10E000E0C814D904EA04FB04B0
:1010A00098F4A701960161E070E0CE0101960E94DC
:1010B0009E05882319F08981080F111D8FEFC81A2A
:1010C000D80AE80AF80AE8CF812F0E944105802F4C
:1010D0000E9441058091FE01882389F0198260E019
:1010E00078E080E090E00E94910520E038E040E068
:1010F00050E061E070E0CE0101960E945E05109222
:10110000F90160E08DE00E94FD00A3960FB6F8940F
:10111000DEBF0FBECDBFDF91CF911F910F91FF902A
:10112000EF90DF90CF90BF90AF909F908F907F9087
:1011300008951093C001E9CF8F929F92AF92BF9212
:101140000F931F93CF93DF93CDB7DEB7A1970FB661
:10115000F894DEBF0FBECDBF19A2423008F44AE0BA
:101160008E010F5D1F4F842E912CB12CA12CA50157
:1011700094010E94BF12E62FB901CA01EA3044F57A
:10118000E05DD801EE938D01232B242B252B79F7DD
:1011900090E080E0109769F0FD0101900020E9F7F0
:1011A0003197AF014A1B5B0BBD0186E392E00E94C1
:1011B000D701A1960FB6F894DEBF0FBECDBFDF9169
:1011C000CF911F910F91BF90AF909F908F900895F6
:1011D000E95CD7CF42E050E06BE571E086E392E056
:1011E0000C94D701CF92DF92EF92FF92CF93DF93CF
:1011F0006C01990FEE08FF08F7FE19C06DE286E357
:1012000092E00E947702EC0166277727CB016C19E8
:101210007D098E099F094AE00E949C088C0F9D1F42
:10122000DF91CF91FF90EF90DF90CF9008954AE04B
:10123000C701B601DF91CF91FF90EF90DF90CF9083
:101240000C949C08AF92BF92CF92DF92EF92FF92E4
:101250000F931F93CF93DF93CDB7DEB70DB71EB7B4
:101260000E94E9024396879708F0D2C06091B405C6
:10127000662309F440C0EDB6FEB68DB79EB72EE0EA
:10128000629F8019910911240FB6F8949EBF0FBE7A
:101290008DBF01966C0150E07EE04091B40544237F
:1012A000F9F02091B30530E0729FF001739FF00DCB
:1012B0001124EE50FC4FD601B72E01900D92BA9436
:1012C000E1F72F5F3F4F2F7133272093B305415034
:1012D0004093B4055F5F2EE0C20ED11C6513DDCFD5
:1012E0002EE0629FB00111240E94E7050FB6F8942A
:1012F000FEBE0FBEEDBED090F103DD2009F443C069
:10130000EDB6FEB66D2D70E08DB79EB728E0D29E8B
:101310008019910911240FB6F8949EBF0FBE8DBF9E
:101320000196AC01B12CC090F103CC2001F12091C9
:10133000F00330E0F901A3E0EE0FFF1FAA95E1F7FB
:10134000E159FC4FB8E0AB2EDA0101900D92AA945E
:10135000E1F72F5F3F4F2F7033272093F003CA949C
:10136000C092F103B394485F5F4FDB10DCCF23E002
:10137000660F771F2A95E1F70E94E7050FB6F894EC
:10138000FEBE0FBEEDBE60916E03662309F440C041
:10139000EDB6FEB68DB79EB722E1629F8019910926
:1013A00011240FB6F8949EBF0FBE8DBF01966C013D
:1013B00050E072E140916E034423F9F020916D03F7
:1013C00030E0729FF001739FF00D1124E452FD4F45
:1013D000D601B72E01900D92BA94E1F72F5F3F4FDF
:1013E0002770332720936D03415040936E035F5F56
:1013F00022E1C20ED11C6513DDCF22E1629FB00154
:1014000011240E94E7050FB6F894FEBE0FBEEDBE94
:101410000FB6F8941EBF0FBE0DBFDF91CF911F9185
:101420000F91FF90EF90DF90CF90BF90AF90089515
:10143000CF92DF92EF92FF920F931F93CF93DF93A0
:10144000CDB7DEB728970FB6F894DEBF0FBECDBF7D
:10145000182F0E94CB01C0903202D0903302E0904E
:101460003402F09035026C197D098E099F09698359
:101470007A838B839C831D831F821E82FE0131969B
:101480009E01285F3F4F80E08F019191890FE21705
:10149000F307D9F788872091F1032031A8F00E9443
:1014A00022092091F103203178F028960FB6F894A4
:1014B000DEBF0FBECDBFDF91CF911F910F91FF9087
:1014C000EF90DF90CF9008958091EF0390E0DC01E2
:1014D00033E0AA0FBB1F3A95E1F7A159BC4F38E0A2
:1014E000F80101900D923A95E1F701968F709927D6
:1014F0008093EF032F5F2093F103D7CF1F920F92BA
:101500000FB60F9211242F933F938F939F93AF9316
:10151000BF9380912E0290912F02A0913002B09142
:10152000310230912D0223E0230F2D3758F501961B
:10153000A11DB11D20932D0280932E0290932F02A6
:10154000A0933002B09331028091290290912A0237
:10155000A0912B02B0912C020196A11DB11D809388
:10156000290290932A02A0932B02B0932C02BF91E0
:10157000AF919F918F913F912F910F900FBE0F9040
:101580001F90189526E8230F0296A11DB11DD2CFFA
:101590001F920F920FB60F9211242F933F934F93E8
:1015A0005F936F937F938F939F93AF93BF93EF93CB
:1015B000FF9386E392E00E945502FF91EF91BF9165
:1015C000AF919F918F917F916F915F914F913F91DB
:1015D0002F910F900FBE0F901F9018951F920F9292
:1015E0000FB60F9211242F938F939F93EF93FF9336
:1015F000E0914602F09147028081E0914C02F09127
:101600004D0282FD1BC0908180914F028F5F8F73CE
:1016100020915002821741F0E0914F02F0E0EA5C25
:10162000FD4F958F80934F02FF91EF919F918F9186
:101630002F910F900FBE0F901F9018958081F4CFBF
:10164000E6E3F2E01382128288EE93E0A0E0B0E0DD
:1016500084839583A683B7838DE491E0918380830F
:1016600085EC90E09587848784EC90E09787868767
:1016700080EC90E0918B808B81EC90E0938B828B5F
:1016800082EC90E0958B848B86EC90E0978B868B38
:10169000118E128E138E148EE3EDF2E01082118201
:1016A000128213821482158216821782108610927B
:1016B000B2051092B3051092B4051092EF03109288
:1016C000F0031092F10310926C0310926D031092CC
:1016D0006E03E5EBF5E01082118212821382148210
:1016E0001582168217821086E7ECF5E010821182CF
:1016F0001282138214821582168217821086EEEBF4
:10170000F5E01082118212821382148215821682F1
:10171000178210860895CF93DF93CDB7DEB7EA978F
:101720000FB6F894DEBF0FBECDBF789484B582604B
:1017300084BD84B5816084BD85B5826085BD85B575
:10174000816085BD80916E00816080936E001092F3
:10175000810080918100826080938100809181006E
:1017600081608093810080918000816080938000FF
:101770008091B10084608093B1008091B00081605D
:101780008093B00080917A00846080937A00809189
:101790007A00826080937A0080917A0081608093E1
:1017A0007A0080917A00806880937A001092C1005C
:1017B000E0914602F091470282E08083E09142028C
:1017C000F09143021082E0914402F091450280E1E1
:1017D000808310924E02E0914A02F0914B0286E023
:1017E0008083E0914802F09149028081806180838A
:1017F000E0914802F0914902808188608083E09105
:101800004802F0914902808180688083E09148021B
:10181000F091490280818F7D80838DE291E09093E9
:101820001D0280931C0280E090E0A0E8B0E4809369
:10183000140190931501A0931601B093170180E055
:1018400090E0AAEFB3E48093100190931101A0936C
:101850001201B093130180E090E0A0E0BFE3809319
:10186000180190931901A0931A01B0931B01809164
:10187000FE0181110FC080E090E1A0E0B0E0809314
:101880000C0190930D01A0930E01B0930F0181E024
:101890008093FE010E94010588E790E00E946F0698
:1018A00060E08BE00E942B011092D3011092D201D4
:1018B00061E08DE00E942B0161E087E00E942B0136
:1018C00061E084E00E942B0161E083E00E942B0133
:1018D00061E088E00E942B0161E089E00E942B0119
:1018E00061E08AE00E942B0161E08DE00E942B0103
:1018F0001CA21DA21EA21FA218A619A61AA61BA6EC
:101900001CA648E552E060E070E0CE0184960E949B
:10191000AB06CE0184960E9480068823D1F360E056
:101920008DE00E94FD0090E080E00E94D60490E0EF
:1019300080E00E94AB0448E552E060E070E0CE0138
:1019400084960E94AB06CE0184960E9480068AABE4
:101950008823C9F30E94C70661E08DE00E94FD0064
:101960008091EB01811115C01092E2011092E30108
:101970001092E4011092E5011092E6011092E70145
:101980001092E8011092E9011092EA0181E080933F
:10199000EB011092E1011092E0014EE150E060E0B5
:1019A00070E082EE91E00E94AB062E012DE0420E27
:1019B000511C7CE0272E71E0372E8091E001909140
:1019C000E1018039914008F09DC082EE91E00E94D3
:1019D0008006882391F384E10E94B9019A83898368
:1019E00083E10E94B9019C838B8382E10E94B9014B
:1019F0009E838D8381E10E94B90198878F8380E166
:101A00000E94B9019A8789878FE00E94B9019C875B
:101A10008B87AE014F5F5F4F6A0150E0E52E51E0CA
:101A2000F52E64ED662E61E0762E53014701D60156
:101A30000D911D916D01C8010E94F2088EE891E0A0
:101A40000E946F06F401819191914F0108171907C7
:101A50001CF4329711830083D5018D919D915D0116
:101A60008017910724F4FD013297118300834C14F1
:101A70005D04E9F68FE891E00E946F060E94EA0893
:101A800086E891E00E946F06F701819191917F01B4
:101A90000E94F2088EE891E00E946F062E143F0427
:101AA00099F78FE891E00E946F060E94EA0880E9AA
:101AB00091E00E946F06D3018D919D913D010E949E
:101AC000F2088EE891E00E946F06E0EEF1E0E61584
:101AD000F70589F78FE891E00E946F060E94EA08F7
:101AE0008091E0019091E10101969093E101809352
:101AF000E0014EE150E060E070E082EE91E00E9493
:101B0000AB065BCF60E08DE00E94FD000E94C7063F
:101B100061E08DE00E94FD001092250210922402E7
:101B2000109223021092220200911C0210911D02B9
:101B30000115110529F0D80118968C91833708F00A
:101B400083E790E090932702809326028091F3012F
:101B5000882309F48EC080E090E1A0E0B0E080939B
:101B60000C0190930D01A0930E01B0930F010E9400
:101B7000CB0169837A838B839C8381E08D8385E0AD
:101B80008E8380E090E0A0EAB0E40115110529F011
:101B9000F80180899189A289B38988879987AA8762
:101BA000BB8780E090E0A6E1B4E40115110529F0BF
:101BB000F80184899589A689B7898C879D87AE8726
:101BC000BF878AE999E9A9E1BFE30115110529F069
:101BD000F801808D918DA28DB38D888B998BAA8B06
:101BE000BB8B1D8A1C8A1F8A1E8A198E188E1B8E1B
:101BF0001A8E1D8E1C8E1F8E1E8EFE0131969E012A
:101C0000205E3F4F40E0CF015191450F2E173F0717
:101C1000D9F750E070E060E048A359A36AA37BA322
:101C200063E270E00E94E705882339F189819A8197
:101C3000AB81BC818093320290933302A093340233
:101C4000B093350221E020931B0280930E02909303
:101C50000F02A0931002B093110280930A02909396
:101C60000B02A0930C02B0930D0281E00E94180AAF
:101C700004C00E94010581116ECF109200021092E3
:101C8000FF0188E690E00E946F060E94EA089E012C
:101C9000225F3F4F3EA72DA78091F901882309F4C9
:101CA00045C00E94CB010091F5011091F6012091F1
:101CB000F7013091F801DC01CB01801B910BA20BE5
:101CC000B30B883B3BE09307A105B10578F0209169
:101CD000F401211123C181E08093F4014CE251E031
:101CE00060E070E085EB95E00E94AB0685EB95E047
:101CF0000E9480068823D1F08DE00E94D40061E02C
:101D0000892B09F060E08DE00E94FD008091F401D4
:101D100048EE53E060E070E0882321F04CE251E0AF
:101D200060E070E085EB95E00E94AB060E94CB017D
:101D30000091FA011091FB012091FC013091FD010D
:101D40006B017C01C01AD10AE20AF30A97018601ED
:101D50000230110521053105A0F16093FA0170935D
:101D6000FB018093FC019093FD0185E10E94B90184
:101D70007C018EE00E94B90161E0853B91050CF089
:101D800060E001E010E025EBE216F10414F010E051
:101D900000E0000F111F062B1093070200930602AC
:101DA00035EBE316F1040CF46AA98DE00E94FD0006
:101DB0008AE991E00E946F06C8010E94F2080E9421
:101DC000EA08809108029091090220910602309160
:101DD00007028217930709F47AC0232B09F043C046
:101DE0008230910509F0B5C08091040290910502FE
:101DF000892B09F0DAC08091FF01909100020196D1
:101E0000909300028093FF01029769F5809101028F
:101E1000811129C081E08093010242E350E060E03B
:101E200070E08EEB95E00E94AB064CE251E060E082
:101E300070E087EC95E00E94AB068091FE0188235C
:101E400091F08AEA898360E078E080E090E00E9487
:101E5000910520E038E040E050E061E070E0CE0124
:101E600001960E945E058091040290910502909374
:101E700003028093020280910802909109029093DC
:101E800005028093040280910602909107029093CC
:101E9000090280930802809101028823C1F0809199
:101EA0002802811118C38EEB95E00E9480068111F3
:101EB0008CC08091260290912702893791050CF4FD
:101EC00084C088E790E09093270280932602C09018
:101ED0001B02C9AA80912802882309F403C390E059
:101EE00080E00E94D60490E080E00E94AB04D9A874
:101EF000DD2039F089E00E94180A0E942209109220
:101F00001B0280E090E0892B09F4C6CE0E944102BA
:101F1000882309F4BCCE0E940000B9CE80379741D7
:101F2000A105B10508F4E2CE1092F40148EE53E0A9
:101F300060E070E085EB95E00E94AB060E94CB016B
:101F40006093F5017093F6018093F7019093F80187
:101F5000CDCE8130910539F5809104029091050232
:101F6000892B19F58091210291E089278093210224
:101F700020EA811101C023E730E03093270220934B
:101F800026021092200210921F0210921E02882335
:101F900039F08EE591E00E946F060E94EA0863CF57
:101FA00082E791E0F8CF039769F080910402909165
:101FB0000502039739F08091020290910302039782
:101FC00009F051CF89EA91E0E6CF87EC95E00E94D5
:101FD0008006882309F483C21092270210922602F9
:101FE00090E080E00E94D60490E080E00E94AB0484
:101FF00081E0809328026BCFB0902102C801439604
:10200000879708F0CDC180912002882331F081E0CC
:1020100080931F028AE080931E021092200223E721
:10202000B11020EAC22ED12C80911F02882361F0CA
:1020300080911E02882341F0B11006C094E1C90EC0
:10204000D11C815080931E022091260230912702DC
:1020500089E12C153D050CF08CE390E0A601421BB4
:10206000530B57FF03C051954195510984179507AC
:102070000CF4BCC1D0922702C09226022091260205
:1020800030912702283731050CF444C280EAB110A0
:1020900001C083E790E0281739070CF4C901E091EB
:1020A0001C02F0911D02309721F0883709F0ABC176
:1020B0008381282E312C3092270220922602C09054
:1020C0001801D0901901E0901A01F0901B01809145
:1020D000240290912502B801681B790B072E000C91
:1020E000880B990B0E942214A70196010E94D71415
:1020F0004B015C016091220270912302072E000CBB
:10210000880B990B0E9422142B013C01A701960118
:1021100060E070E080E89FE30E9406139B01AC0141
:10212000C301B2010E94D7149B01AC01C501B401E7
:102130000E9407130E94EA136B01709323026093BD
:102140002202B801012E000C880B990B0E94221468
:102150002091140130911501409116015091170101
:102160000E94D7144B015C01B601DD0C880B990B62
:102170000E9422142091100130911101409112010E
:10218000509113010E94D7149B01AC01C501B40109
:102190000E9407132AE939E949E55FE3A9EC2A1609
:1021A000310424F420E030E040E85FE30E94D714DB
:1021B0000E94EA137B016F3F710521F01CF0EE24B1
:1021C000EA94F12CE1E0EE16EFEFFE0624F4EE24A3
:1021D000E394FF24FA946101CE0CDF1CFFEFCF16CD
:1021E000D10421F01CF0CC24CA94D12C5101AE189A
:1021F000BF082FEFA216B10421F01CF0AA24AA9464
:10220000B12CC6010E94D604C5010E94AB041093F4
:1022100025020093240239A9332309F434C1909094
:1022200021024FA558A94E32510514F0689491F837
:102230000E94CB012B013C010E94E90297FF03C0E1
:102240009195819591098E970CF4EBC084E190E013
:10225000A0E0B0E08FAB98AFA9AFBAAF80910E020B
:1022600090910F02A0911002B0911102A30192016E
:10227000281B390B4A0B5B0B8FA998ADA9ADBAADE2
:10228000281739074A075B0708F4DBC0DA2CBC2C97
:1022900040920E0250920F02609210027092110250
:1022A0000E94CB0140903202509033026090340281
:1022B00070903502641975098609970969837A83D4
:1022C0008B839C831E830D8318870F83FA86E98690
:1022D000CB86AC869D86FE01319680E0AE2ECF2E59
:1022E0009191890FADA5BEA5AE17BF07C9F78E871F
:1022F000EFA5F8A9BF01FF0F880B990B0E942214CC
:102300009B01AC0160911702709118028091190233
:1023100090911A020E94071360931702709318029B
:102320008093190290931A028091130290911402E3
:10233000A0911502B09116020196A11DB11D8093C6
:10234000130290931402A0931502B0931602DB14AB
:1023500008F4DB2C80911202D81608F4D82ED09203
:1023600012022091B405203208F064C08091B205B9
:1023700090E03EE0389FD001399FB00D1124AE505F
:10238000BC4FEA2DFC2D01900D923A95E1F7019694
:102390008F7199278093B2052F5F2093B40551C0A8
:1023A00023E7B11020EAC22ED12CF12CE12C8FA50D
:1023B00098A99C01990F440B550B245131094109EF
:1023C000510968E770E080E090E06C197D098E09A2
:1023D0009F090E94F01229E130E040E050E00E94A5
:1023E0008D12C20ED31EE41EF51E1ECE2C153D0509
:1023F0001CF0919581959109820F931F909327026C
:10240000809326023BCE8C3811F4848152CE803AE0
:1024100011F485814ECE9085981708F04ACE892F09
:1024200048CE22E330E040E050E02FAB38AF49AF78
:102430005AAF14CF0E9422092091B405203208F42B
:1024400095CF0E94CB014B015C0180910A029091D3
:102450000B02A0910C02B0910D02A5019401281B62
:10246000390B4A0B5B0BDA01C901883E9340A10589
:10247000B10548F00E94E90218161906E4F40E941A
:10248000E9024497ECF08EE990E00E946F06C101EA
:102490000E94F20885E990E00E946F06C8010E9440
:1024A000F20887E890E00E946F06C7010E94F208D8
:1024B0000E94EA0826CD0E94E9028D3E9F4F1CF340
:1024C0000E94220980920A0290920B02A0920C02B2
:1024D000B0920D02D8CFC0901B02C9AA00CDD090F7
:1024E0001B02D9AA0E94E9028C0198AB8FA797FF23
:1024F00006C0EE24FF24E81AF90AF8AAEFA62FA5D1
:1025000038A92E3231050CF477CD81E0809320027A
:1025100010921F0288E790E0C2CD052E97FB1EF4B3
:1025200000940E94A41257FD07D00E94BF1207FC1E
:1025300003D04EF40C94A4125095409530952195FB
:102540003F4F4F4F5F4F08959095809570956195DF
:102550007F4F8F4F9F4F08950E94E112A59F900DCE
:10256000B49F900DA49F800D911D11240895B7FF75
:102570000C94AC120E94AC12821B930B0895A1E242
:102580001A2EAA1BBB1BFD010DC0AA1FBB1FEE1FED
:10259000FF1FA217B307E407F50720F0A21BB30B38
:1025A000E40BF50B661F771F881F991F1A9469F7B4
:1025B00060957095809590959B01AC01BD01CF0110
:1025C0000895A29FB001B39FC001A39F700D811D0C
:1025D0001124911DB29F700D811D1124911D08952C
:1025E000DB018F939F930E94AC12BF91AF91A29F8A
:1025F000800D911DA39F900DB29F900D1124089501
:10260000EE0FFF1F0590F491E02D09945058BB2761
:10261000AA270E941E130C9498140E948A1438F062
:102620000E94911420F039F49F3F19F426F40C9481
:1026300087140EF4E095E7FB0C948114E92F0E94B7
:10264000A91458F3BA17620773078407950720F097
:1026500079F4A6F50C94CB140EF4E0950B2EBA2F5A
:10266000A02D0B01B90190010C01CA01A001112498
:10267000FF27591B99F0593F50F4503E68F11A1644
:10268000F040A22F232F342F4427585FF3CF4695D5
:1026900037952795A795F0405395C9F77EF41F16F7
:1026A000BA0B620B730B840BBAF09150A1F0FF0FC1
:1026B000BB1F661F771F881FC2F70EC0BA0F621FAD
:1026C000731F841F48F4879577956795B795F7959D
:1026D0009E3F08F0B0CF9395880F08F09927EE0F32
:1026E0009795879508950E945D1408F481E00895F8
:1026F0000E948C130C9498140E94911458F00E941C
:102700008A1440F029F45F3F29F00C948114511190
:102710000C94CC140C9487140E94A91468F3992388
:10272000B1F3552391F3951B550BBB27AA276217CD
:102730007307840738F09F5F5F4F220F331F441FDA
:10274000AA1FA9F335D00E2E3AF0E0E832D091500E
:102750005040E695001CCAF72BD0FE2F29D0660FFB
:10276000771F881FBB1F261737074807AB07B0E83E
:1027700009F0BB0B802DBF01FF2793585F4F3AF044
:102780009E3F510578F00C9481140C94CC145F3F5B
:10279000E4F3983ED4F3869577956795B795F795CA
:1027A0009F5FC9F7880F911D9695879597F90895B2
:1027B000E1E0660F771F881FBB1F6217730784074E
:1027C000BA0720F0621B730B840BBA0BEE1F88F75D
:1027D000E09508950E94F1136894B1110C94CC1403
:1027E00008950E94B11488F09F5798F0B92F992747
:1027F000B751B0F0E1F0660F771F881F991F1AF0EC
:10280000BA95C9F714C0B13091F00E94CB14B1E071
:1028100008950C94CB14672F782F8827B85F39F070
:10282000B93FCCF3869577956795B395D9F73EF484
:1028300090958095709561957F4F8F4F9F4F08952C
:10284000E89409C097FB3EF490958095709561954A
:102850007F4F8F4F9F4F9923A9F0F92F96E9BB2700
:102860009395F695879577956795B795F111F8CF7C
:10287000FAF4BB0F11F460FF1BC06F5F7F4F8F4FE7
:102880009F4F16C0882311F096E911C0772321F0DD
:102890009EE8872F762F05C0662371F096E8862F75
:1028A00070E060E02AF09A95660F771F881FDAF7CC
:1028B000880F9695879597F90895990F0008550FF9
:1028C000AA0BE0E8FEEF16161706E807F907C0F0B6
:1028D00012161306E407F50798F0621B730B840BBE
:1028E000950B39F40A2661F0232B242B252B21F498
:1028F00008950A2609F4A140A6958FEF811D811D38
:10290000089597F99F6780E870E060E008959FEF71
:1029100080EC089500240A94161617061806090676
:10292000089500240A941216130614060506089545
:10293000092E0394000C11F4882352F0BB0F40F4CD
:10294000BF2B11F460FF04C06F5F7F4F8F4F9F4F0D
:10295000089557FD9058440F551F59F05F3F71F08F
:102960004795880F97FB991F61F09F3F79F08795F6
:102970000895121613061406551FF2CF4695F1DF7F
:1029800008C0161617061806991FF1CF869571050F
:10299000610508940895E894BB2766277727CB0143
:1029A00097F908950E945D1408F48FEF08950E942E
:1029B000EA140C9498140E948A1438F00E9491141E
:1029C00020F0952311F00C9481140C948714112499
:1029D0000C94CC140E94A91470F3959FC1F3950F29
:1029E00050E0551F629FF001729FBB27F00DB11D93
:1029F000639FAA27F00DB11DAA1F649F6627B00D23
:102A0000A11D661F829F2227B00DA11D621F739F0B
:102A1000B00DA11D621F839FA00D611D221F749F19
:102A20003327A00D611D231F849F600D211D822F60
:102A3000762F6A2F11249F5750409AF0F1F0882387
:102A40004AF0EE0FFF1FBB1F661F771F881F9150B4
:102A50005040A9F79E3F510580F00C9481140C94CE
:102A6000CC145F3FE4F3983ED4F386957795679551
:102A7000B795F795E7959F5FC1F7FE2B880F911DDE
:0C2A80009695879597F90895F894FFCF7C
:102A8C00FF03FF03FF03FF03FF03FF03001000001E
:102A9C00000016440000A0409A99193F303132339F
:102AAC0034353637383941424344454600003C50B2
:102ABC005A64788CA0B40F28503219080F0000808B
:102ACC00400000FA430000003F000000007702D7EE
:102ADC00010402C9023502130227020D0A00536CCD
:102AEC006F77206D6F6465206163746976617465BE
:102AFC00640046617374206D6F6465206163746952
:102B0C007661746564004D696E696D756D7309004D
:102B1C004D6178696D756D7309004D61726B6572ED
:102B2C002053746174653A2000496E746572736544
:102B3C006374696F6E20646574656374656400000A
:00000001FF
